:020000040800F2
:10000000500D0020FD04000859050008590500089E
:1000100059050008590500085905000800000000AE
:10002000000000000000000000000000590500086A
:10003000590500080000000059050008590500088E
:100040005905000859050008590500085905000818
:100050005905000859050008590500085905000808
:1000600059050008590500085905000859050008F8
:1000700059050008590500085905000859050008E8
:1000800059050008590500085905000859050008D8
:1000900059050008590500085905000859050008C8
:1000A00059050008590500085905000859050008B8
:1000B00059050008590500085905000859050008A8
:1000C0005905000859050008590500085905000898
:1000D0005905000859050008450A00085909000893
:1000E0005905000859050008590500085905000878
:1000F0005905000859050008590500085905000868
:100100005905000859050008590500085905000857
:100110005905000859050008590500085905000847
:100120005905000859050008590500085905000837
:100130005905000859050008590500085905000827
:100140005905000859050008590500085905000817
:100150005905000859050008590500085905000807
:1001600059050008590500085905000859050008F7
:1001700059050008590500085905000859050008E7
:10018000590500085905000880B58AB000AF7860AD
:10019000396000237B6200233B620023FB61002364
:1001A000BB617B681B8A9BB27B627B6A23F44053F2
:1001B0007B623B68DB881A467B6A13437B627B6AFF
:1001C0009AB27B681A827B689B899BB27B627B6A4E
:1001D00023F4B05323F00C037B623B689A883B689E
:1001E0001B8913439AB23B685B8913439BB21A463F
:1001F0007B6A13437B627B6A9AB27B689A817B68D5
:100200009B8A9BB27B627B6A23F440737B623B6870
:100210009B891A467B6A13437B627B6A9AB27B682E
:100220009A8207F10803184600F040FC7B68304AC8
:10023000934203D07B682F4A934202D17B693B6291
:1002400001E03B693B627B689B899BB21BB2002B40
:100250000CDA3A6A13469B0013449A001A443B682E
:100260001B685B00B2FBF3F3FB610BE03A6A1346D9
:100270009B0013449A001A443B681B689B00B2FB26
:10028000F3F3FB61FB691C4AA2FB03235B091B011F
:100290007B627B6A1B09642202FB03F3FA69D31AAF
:1002A000BB617B689B899BB21BB2002B0CDABB69DC
:1002B000DB003233104AA2FB03235B0903F0070380
:1002C0007A6A13437B620BE0BB691B0132330A4A33
:1002D000A2FB03235B0903F00F037A6A13437B62DB
:1002E0007B6A9AB27B681A8100BF2837BD4680BD01
:1002F00000100140001401401F85EB5180B483B011
:1003000000AF78600B46FB70FB78002B08D07B6851
:100310009B899BB243F400539AB27B689A8107E0B1
:100320007B689B899BB223F400539AB27B689A81C5
:1003300000BF0C37BD4680BC704700BF80B483B09F
:1003400000AF78600B467B807B88C3F308039AB2CA
:100350007B689A8000BF0C37BD4680BC704700BFE9
:1003600080B483B000AF78607B689B889BB2C3F396
:1003700008039BB218460C37BD4680BC704700BFCF
:1003800080B487B000AF78600B467B8013467B70EB
:1003900000233B610023FB600023BB6000237B61E3
:1003A0007B687B617B88DBB25B09DBB23B617B886E
:1003B00003F01F03FB600122FB6802FA03F3BB603A
:1003C0003B69012B03D17B690C337B6109E03B69FD
:1003D000022B03D17B6910337B6102E07B6914330C
:1003E0007B617B78002B06D07B697A691168BA68DB
:1003F0000A431A6006E07B697A691168BA68D243D9
:100400000A401A6000BF1C37BD4680BC704700BF61
:1004100080B485B000AF78600B467B800023FB730F
:100420007B681B889AB27B8813409BB2002B02D05A
:100430000123FB7301E00023FB73FB7B1846143799
:10044000BD4680BC704700BF80B487B000AF786005
:100450000B467B800023FB6000237B610023BB6095
:100460000023FB747B88DBB25B09DBB2BB607B885B
:1004700003F01F037B6101227B6902FA03F37B61B6
:10048000BB68012B07D17B689B899BB21A467B69AD
:1004900013407B6111E0BB68022B07D17B681B8A8C
:1004A0009BB21A467B6913407B6106E07B689B8A9E
:1004B0009BB21A467B6913407B617B881B0A9BB207
:1004C000FB600122FB6802FA03F3FB607B681B8878
:1004D0009BB21A46FB681340FB607B69002B05D07A
:1004E000FB68002B02D00123FB7401E00023FB74A6
:1004F000FB7C18461C37BD4680BC704780B582B077
:1005000000AF104B7B60104B3B6007E03B681A1D4F
:100510003A607A68111D796012681A603B680B4A6C
:100520009342F3D30A480B494FF000028842B8BF08
:1005300040F8042BFADB00F0ADFA00BF0837BD46E7
:1005400080BD00BF161B0008000000201000002026
:10055000100000205005002080B400AFFEE700BF6F
:1005600080B483B000AF0346FB71084997F90730A8
:100570005B09FA7902F01F02012000FA02F241F849
:10058000232000BF0C37BD4680BC704700E100E06F
:1005900080B483B000AF78607A6813465B00134480
:1005A000DB007B6000BF7B685A1E7A60002BFAD1AB
:1005B00000BF0C37BD4680BC704700BF98B500AF88
:1005C000164A174B144607CB20606160A26015499C
:1005D000124800F07DFD114800F012FE03461A4655
:1005E0000E4B134410491A460B461B8813800B48C8
:1005F00000F006FE03461A46084B13440B491A4600
:100600000B4603CB1060516019889B78118193725F
:100610000749024800F05CFD00BF98BD10000020B3
:10062000941A0008B8040020A01A0008A41A0008B0
:100630009404002080B582B000AF78601FE000BF56
:1006400080211348FFF7E4FE0346002BF8D07B68B7
:100650001B78DBB29BB219460D48FFF76FFE00BF57
:1006600040210B48FFF7D4FE0346002BF8D04CF294
:100670005030FFF78DFF7B685A1C7A601B787B68CF
:100680001B78DBB2002BDAD100BF0837BD4680BD36
:100690000044004080B483B000AF00237B6007E0DB
:1006A000094A7B68134400221A707B6801337B601F
:1006B0007B687F2BF4D9054B00221A8000BF0C37D2
:1006C000BD4680BC704700BF140400204A050020CE
:1006D00080B500AF124B32221A80FFF7DBFF1148C2
:1006E000FFF7A8FF1048FFF753FF1049104800F02C
:1006F000D5FF0346002BEDD0FFF760FF084B6422C7
:100700001A800C48FFF796FF0B48FFF793FF064847
:10071000FFF73EFF0948FFF78DFF00BF80BD00BF18
:10072000B4040020B01A000880380100C81A00087C
:1007300014040020D01A000810000020E81A000855
:1007400080B483B000AF78607B682F2B04DD7B68BA
:10075000392B01DC012300E0002318460C37BD468D
:1007600080BC704780B588B000AF0121042000F044
:1007700047FA01214FF4802000F060FA4FF4406303
:10078000BB6102233B770023BB770123FB77022366
:100790007B7707F1180319461E4800F06DFA07220F
:1007A0000A211C4800F0F6FA07220B21194800F034
:1007B000F1FA4FF41653BB600023BB810023FB8189
:1007C00000233B820023BB820C237B8207F10803BA
:1007D00019461148FFF7D8FC01210F48FFF78EFD9D
:1007E000012240F225510C48FFF7CAFD27233B7137
:1007F00000237B710023BB710123FB713B1D184655
:1008000000F0B8FB2720FFF7ABFE00BF2037BD4646
:1008100080BD00BF000802400048004080B588B09D
:1008200000AF0121012000F0EBF901214FF400306D
:1008300000F004FA0C23BB6102233B770023BB7753
:100840000123FB7702237B7707F118031946394808
:1008500000F012FA07220221364800F09BFA072224
:100860000321344800F096FA4FF4E133BB600023D3
:10087000BB810023FB8100233B820023BB820C232E
:100880007B8207F1080319462B48FFF77DFC012105
:100890002948FFF733FD012240F225512648FFF792
:1008A0006FFD26233B7100237B710023BB71012365
:1008B000FB713B1D184600F05DFB2620FFF750FE44
:1008C0001E4B14221A80FFF7E5FE1D48FFF7B2FE0B
:1008D0001C48FFF75DFE1C491C4800F0DFFE034684
:1008E000002BEDD0154B1E221A80FFF7D3FE1848BF
:1008F000FFF7A0FE1348FFF74BFE1349134800F023
:10090000CDFE0346002BEDD00C4B28221A80FFF7BA
:10091000C1FE1048FFF78EFE0A48FFF739FE0A496C
:100920000A4800F0BBFE0346002BEDD000BF203785
:10093000BD4680BD0000024000440040B4040020D9
:10094000EC1A000800350C00F01A0008140400200E
:10095000F41A0008041B000880B500AF40F22551CE
:100960002D48FFF771FD0346002B53D02A48FFF7AF
:10097000F7FC0346DAB2294B1A70284B1B78242B5C
:1009800003D1274B00221A6044E0244B1B780D2B27
:1009900037D105222349244800F0A0FC0346002B50
:1009A00038D110220021214800F044FB1022002100
:1009B0001F4800F03FFB102200211E4800F03AFBC8
:1009C00006221D49194800F0D9FC174B1B7C18461C
:1009D000FFF7B6FE0346002B1CD00A221749144825
:1009E00000F0CCFC104BDA7E114B9A720B221449AA
:1009F000104800F0C3FC0C4B93F829200D4BDA7221
:100A000008E0074B1B685A1C05490A60034A117825
:100A1000054AD15400BF80BD004800404805002071
:100A200010040020101B0008C8040020A4040020AB
:100A3000B804002094040020CE040020D804002034
:100A4000E504002080B500AF40F225510D48FFF7C6
:100A5000FBFC0346002B13D00A48FFF781FC03463A
:100A6000DAB2094B1A70094BB3F9002093B2013383
:100A70009BB219B2054B1980034B1978044B99545A
:100A800000BF80BD004400404C0500204A05002006
:100A90001404002080B500AF00F0C4F9FFF762FE37
:100AA000FFF7BCFEFFF714FEFCE700BF80B489B07F
:100AB00000AF78600023BB6100237B610023FB61F2
:100AC00002233B610023FB600223BB60484B9B6811
:100AD00003F00C03BB61BB69042B07D0082B09D0C2
:100AE000002B3FD17B68434A1A603FE07B68424A53
:100AF0001A603BE03E4B5B6803F480039B0DFB6098
:100B00003B4B5B6803F03F03BB60FB68002B0DD0E1
:100B1000394ABB68B2FBF3F2354B596847F6C073EC
:100B20000B409B0903FB02F3FB610CE0314ABB68FD
:100B3000B2FBF3F22E4B596847F6C0730B409B098A
:100B400003FB02F3FB612A4B5B6803F440331B0C8D
:100B500001335B003B61FA693B69B2FBF3F27B68EE
:100B60001A6003E07B68234A1A6000BF204B9B6831
:100B700003F0F003BB61BB691B09BB611F4ABB6982
:100B800013441B78DBB27B617B681A687B69DA40AF
:100B90007B685A60164B9B6803F4E053BB61BB69EA
:100BA0009B0ABB61154ABB6913441B78DBB27B61AE
:100BB0007B685A687B69DA407B689A600C4B9B685B
:100BC00003F46043BB61BB695B0BBB610B4ABB6950
:100BD00013441B78DBB27B617B685A687B69DA401F
:100BE0007B68DA6000BF2437BD4680BC704700BF19
:100BF000003802400024F40000127A0000000020B7
:100C000080B483B000AF78600B46FB70FB78002B9C
:100C100006D00949084B1A6B7B6813430B6306E047
:100C20000549054B1A6B7B68DB4313400B6300BF20
:100C30000C37BD4680BC70470038024080B483B09A
:100C400000AF78600B46FB70FB78002B06D009499B
:100C5000084B1A6C7B6813430B6406E00549054B8F
:100C60001A6C7B68DB4313400B6400BF0C37BD4636
:100C700080BC70470038024080B487B000AF786015
:100C8000396000237B6100233B610023FB6000236C
:100C90007B6176E001227B6902FA03F33B613B68EA
:100CA0001A683B691340FB60FA683B699A4265D158
:100CB0007B681A687B695B00032101FA03F3DB435D
:100CC0001A407B681A607B681A683B681B79194672
:100CD0007B695B0001FA03F31A437B681A603B6887
:100CE0001B79012B03D03B681B79022B2ED17B682B
:100CF0009A687B695B00032101FA03F3DB431A4026
:100D00007B689A607B689A683B685B7919467B6967
:100D10005B0001FA03F31A437B689A607B685A68A8
:100D20007B699BB2194601238B40DB431A407B68E9
:100D30005A607B685B683A68927911467A6992B228
:100D400001FA02F292B21A437B685A607B68DA6851
:100D50007B699BB25B00032101FA03F3DB431A407A
:100D60007B68DA607B68DA683B68DB7919467B6907
:100D70005B0001FA03F31A437B68DA607B69013395
:100D80007B617B690F2B85D900BF1C37BD4680BCBA
:100D9000704700BF80B485B000AF78600B467B80A1
:100DA00013467B700023FB600023BB607A787B884E
:100DB00003F007039B0002FA03F3FB607B88DB0868
:100DC0009BB218467B88DB089BB21A467B680832C8
:100DD00053F822207B8803F007039B000F2101FAC0
:100DE00003F3DB4302EA03017B6800F1080243F8E6
:100DF00022107B88DB089BB21A467B68083253F8C6
:100E00002220FB681343BB607B88DB089BB21A4639
:100E10007B680832B96843F8221000BF1437BD461A
:100E200080BC704780B500AF124A124B1B6843F07C
:100E3000010313600F4B00229A600E4A0D4B1B6892
:100E400023F0847323F4803313600A4B0A4A5A60F8
:100E5000084A084B1B6823F480231360054B0022CB
:100E6000DA6000F00DF8054B4FF000629A6000BFA9
:100E700080BD00BF003802401030002400ED00E0CB
:100E800080B483B000AF00237B6000233B60354A11
:100E9000344B1B6843F480331360324B1B6803F4FC
:100EA00000333B607B6801337B603B68002B03D1E0
:100EB0007B68B3F5A06FF0D12A4B1B6803F40033B5
:100EC000002B02D001233B6001E000233B603B6824
:100ED000012B42D1234A234B1B6C43F080531364F4
:100EE000214A214B1B6843F4804313601D4A1D4B6C
:100EF0009B6893601B4A1B4B9B6843F400439360C1
:100F0000184A184B9B6843F4A0539360154B174A3B
:100F10005A60144A134B1B6843F08073136000BF80
:100F2000104B1B6803F00073002BF9D0104B40F2FC
:100F300005621A600B4A0B4B9B6823F00303936016
:100F4000084A084B9B6843F00203936000BF054BBF
:100F50009B6803F00C03082BF9D100BF0C37BD468A
:100F600080BC7047003802400070004019544007B0
:100F7000003C024080B485B000AF78600023FB7372
:100F80000023BB730F237B737B68DB78002B38D087
:100F9000264BDB68DB4303F4E0631B0AFB73FB7B3C
:100FA000C3F10403BB737A7BFB7B42FA03F37B73CD
:100FB0007B685B781A46BB7B02FA03F3FB737B68A2
:100FC0009A787B7B1340DAB2FB7B1343FB73FB7B8A
:100FD0001B01FB73164A7B681B781344FA7B83F86A
:100FE0000023134A7B681B785B09DBB218467B68D9
:100FF0001B7803F01F03012101FA03F342F82030AC
:101000000FE00B497B681B785B09DBB218467B68F5
:101010001B7803F01F0301229A4000F1200341F8DE
:10102000232000BF1437BD4680BC704700ED00E0B0
:1010300000E100E070B4840746D0541E002A41D07D
:10104000CDB2034602E0621EE4B3144603F8015B2E
:101050009A07F8D1032C2ED9CDB245EA05250F2CDD
:1010600045EA054519D903F110022646103E0F2E18
:1010700042F8105C42F80C5C42F8085C42F8045CF0
:1010800002F11002F2D8A4F1100222F00F0204F0D3
:101090000F041032032C13440DD91E462246043A85
:1010A000032A46F8045BFAD8221F22F00302043216
:1010B000134404F003042CB1C9B21C4403F8011B0F
:1010C000A342FBD170BC704714460346C2E700BF81
:1010D000830710B5044610D10268A2F1013323EA58
:1010E000020313F0803F08D150F8042FA2F101331E
:1010F00023EA020313F0803FF6D003781BB110F807
:10110000013F002BFBD100F003F8204610BD00BFCB
:1011100080EA0102844612F0030F4FD111F0030F51
:1011200032D14DF8044D11F0040F51F8043B0BD0AF
:10113000A3F101329A4312F0803F04BF4CF8043B04
:1011400051F8043B16D100BF51F8044BA3F1013212
:101150009A4312F0803FA4F101320BD14CF8043BCA
:10116000A24312F0803F04BF51F8043B4CF8044BFB
:10117000EAD023460CF8013B13F0FF0F4FEA33236C
:10118000F8D15DF8044B704711F0010F06D011F84B
:10119000012B0CF8012B002A08BF704711F0020F39
:1011A000BFD031F8022B12F0FF0F16BF2CF8022B24
:1011B0008CF8002012F47F4FB3D1704711F8012B47
:1011C0000CF8012B002AF9D1704700BF0000000085
:1011D000000000000000000000000000000000000F
:1011E00000000000000000000000000000000000FF
:1011F00000000000000000000000000000000000EF
:1012000090F800F06DE9024520F007016FF0000C46
:1012100010F0070491F820F040F049804FF00004EE
:101220006FF00700D1E9002391F840F000F10800C9
:1012300082FA4CF2A4FA8CF283FA4CF3A2FA8CF301
:101240004BBBD1E9022382FA4CF200F10800A4FA68
:101250008CF283FA4CF3A2FA8CF3E3B9D1E90423BC
:1012600082FA4CF200F10800A4FA8CF283FA4CF3F3
:10127000A2FA8CF37BB9D1E9062301F1200182FAAD
:101280004CF200F10800A4FA8CF283FA4CF3A2FAB3
:101290008CF3002BC6D0002A04BF04301A4612BAC1
:1012A000B2FA82F2FDE8024500EBD2007047D1E9C4
:1012B000002304F00305C4F100004FEAC50514F053
:1012C000040F91F840F00CFA05F562EA05021CBF24
:1012D00063EA050362464FF00004A9E7002A41D003
:1012E00040EA010313F00303F0B425D1032A23D904
:1012F00004680D68AC421FD1043A35D0A4F1013521
:1013000025EA040414F0803F31D1071D0D1D0DE0C6
:1013100057F8043B0E68A3F10134B34224EA0304F6
:101320000AD1043A20D014F0803F23D1032A294661
:10133000384605F10405EBD803780C789C4202F19D
:10134000FF320CD182B114B916E06AB17BB110F84A
:10135000013F11F8014FA34202F1FF32F5D0181BF3
:10136000F0BC7047104670471046F0BC70471846F6
:10137000F0BC70470020F3E72046F1E740EA0103A4
:101380009B0770B42BD1032A29D90C46034621466A
:1013900054F8046BA6F1013525EA060515F0803FE7
:1013A00006D1043A032A43F8046B2146EFD8A2B1D0
:1013B0000C781C70013A013301313CB16AB111F86B
:1013C000014B03F8014B013A002CF7D12AB11A4422
:1013D000002103F8011B9A42FBD170BC7047034601
:1013E000E5E700BF2DE9F0414FF0010E74460025FE
:1013F0004FF0FF362B198B4200EB06070DD23F5DF5
:1014000010F803C0BC452DD21D460124C6EB030EC7
:101410002B198B4200EB0607F1D34FF00108C2F8FD
:1014200000E0444600254FF0FF372B19994200EBAE
:10143000070E0ED91EF804E010F803C0F44518D9C1
:101440001D460124C7EB03082B19994200EB070E38
:10145000F0D80137701C874224BFC2F8008038469C
:10146000BDE8F0810CD04FF0010E2E467446754455
:10147000C0E70CD04FF001082F4644464544D4E75E
:10148000744509BFA64601341D460124B2E7444510
:1014900009BFA04601341D460124C6E72DE9F04FDF
:1014A000ADF2144D164605468B461046194603AA62
:1014B0001C46FFF797FF03AB81460DF20C4243F841
:1014C000044F9342FBD14CB1631E324604A812F87C
:1014D000011B40F8213013F1FF33F8D203994A463B
:1014E0003144304600F03CFA002871D109F1FF3355
:1014F0000093F3188246019323468046544658468B
:101500009A4608EB0A073A1A0021284400F0D8F955
:10151000002858D1002F56D0EB1904AA13F8013C2B
:1015200052F823304BB124B1039A934201D2C2EB5B
:101530000A03984400243846E3E74C4523460AF161
:10154000FF3E38BF4B46734513D208EB030216F833
:1015500003C0A85C84452A4406EB030106D02EE0B4
:1015600011F801CF12F8010F844528D101337345DA
:10157000F6D34C45009980F08B80009B019808EBD6
:1015800003020378A85C83422A4440F08180019BD7
:1015900006EB040B06E013F801ED12F8010D864589
:1015A00004D161469B4501F1FF3CF4D101348C42EA
:1015B00070D8039C3846A044C4EB0A04A1E7C9F1E3
:1015C00001029044B5E700200DF2144DBDE8F08F04
:1015D000C9EB04034B4538BF4B46013309F1FF38D3
:1015E000039306EB080358464FF0000ACB46994692
:1015F0000AEB04073A1A0021284400F061F9002898
:10160000E1D1002FDFD0EB1904AA13F8013C52F806
:101610002330A3BB611E8B4515D20AEB0B0216F8D3
:101620000B3015F802E09E452A4406EB0B005B46A2
:1016300006D027E010F801CF12F801EFF44521D1D0
:1016400001338B42F6D3B8F1FF3F11D00AEB080209
:1016500099F80010AB5C99422A440FD14B4605E043
:1016600013F8010D12F8011D884207D1B342F7D1DA
:1016700005EB0A000DF2144DBDE8F08F039B9A4470
:101680003846B5E7CBF1010292449A443846AFE7B9
:1016900049468BE705EB080096E700BF0378002B6F
:1016A00000F004812DE9F04F91F8008085B04446A8
:1016B000B8F1000F16D0864601F1010C012703E0B6
:1016C00012F8014B6CB194469C4214BF002707F0FE
:1016D00001071EF8013F6246002BF1D19CF8003053
:1016E0000BBB17B105B0BDE8F08F0E46054641466D
:1016F0000130C6EB0C0400F065F9074698B1012CE7
:10170000F0D02819874294BFC7EB000B4FF0010BB4
:101710001F2C0CD92346324659463846FFF7BEFEE9
:1017200005B0BDE8F08F002005B0BDE8F08F03AA3A
:1017300021463046FFF756FE039980460246314463
:10174000304600F00DF9002858D108F1FF3301931D
:10175000F3188146054600935846B2466619321A78
:101760000021384400F0ACF80028DCD1002EDAD09B
:10177000C845434638BF4B469C4212D95A191AF8FD
:101780000310B85C88423A440AEB030E06D02DE001
:101790001EF8010F12F8011F884227D101339C4225
:1017A000F6D8019BC845194640F28380EA18009894
:1017B0000378B85C83423A447BD1009B0AEB090B67
:1017C00006E013F801CD12F801EDF44504D101460D
:1017D0005B4501F1FF30F4D109F10109894557D882
:1017E000039B30461D44C3EB0409B7E7C8F101026F
:1017F00015441D444FF000093046AFE7C8EB040321
:10180000434538BF4346013308F1FF39039306EBE4
:10181000090358460025BB469A4667193A1A002123
:10182000584400F04DF800287FF47DAF002F3FF4BE
:101830007AAF444515D908EB050216F808301BF8B5
:10184000020098425A4406EB0801434606D023E0C2
:1018500011F801EF12F8010F86451DD101339C42AA
:10186000F6D8B9F1FF3F12D005EB09029AF8001043
:101870001BF8023099425A4414D1534605E013F83C
:10188000010D12F8011D88420CD1B342F7D15F4619
:10189000781905B0BDE8F08FC8F1010215441D4468
:1018A0003846BAE7039B38461D44B6E70B7813B9B0
:1018B0007047414690E70020704700BF00000000DD
:1018C00001F0FF01102A2BDB10F0070F08D010F8F1
:1018D000013B013A8B422DD010F0070F42B3F6D1F5
:1018E000F0B441EA012141EA014122F007047FF00E
:1018F00000070023F0E80256083C85EA010586EA65
:10190000010685FA47F5A3FA87F586FA47F6A5FAA0
:1019100087F68EB9EED1F0BC01F0FF0102F00702AC
:1019200032B110F8013B013A83EA010313B1F8D157
:101930000020704701387047002D06BF3546033838
:10194000073815F0010F07D1013015F4807F02BF71
:10195000013015F4C03F0130F0BC0138704700BFC2
:10196000032A70B426D940EA01039B0711D00478FA
:101970000D78AC4222D10244431C05E013F8014B20
:1019800011F8015FAC4219D19342F7D1002070BC2D
:1019900070470C4603461E682568AE42184621462D
:1019A00003F1040304F10404E1D1043A032A1846C4
:1019B0002146F0D8002ADAD11046E8E7601B70BC57
:1019C000704700BF70B411F0FF0434D085070FD00A
:1019D0000378002B5AD09C422BD0431C05E013F80F
:1019E000012B002A4FD0944223D09A071846F6D1F3
:1019F0000E0206F47F462643036846EA064601E0E7
:101A000050F8043F86EA0305A5F10132A3F1013144
:101A100022EA050221EA0303134313F0803FEFD0CB
:101A2000037823B932E010F8013F002B2ED09C42FE
:101A3000F9D170BC704784070BD00378002BF8D025
:101A4000431C03E002780133002AF2D099071846BC
:101A5000F8D10268A2F1013323EA020313F0803FB8
:101A600008D150F8042FA2F1013323EA020313F046
:101A7000803FF6D00378002BDBD010F8013F002B1D
:101A8000FBD170BC7047104670BC7047184670BCE4
:101A9000704700BF537A65726F6B6F73633A2000B3
:101AA0000A0000005779736F6B6F73633A20000070
:101AB00041542B434D474C3D2252454320554E52F5
:101AC000454144220D0000002B434D474C3A000095
:101AD00041542B434D47533D222B34383531353358
:101AE0003034373036220D001A00000041540D000A
:101AF0004F4B000041542B435343533D2247534D1A
:101B0000220D000041542B434D47463D310D00004E
:061B100047504747410069
:101B1600000000000102030401020304060708098D
:0400000508000000EF
:00000001FF
