:020000040800F2
:1000000078090020C5040008210500082105000822
:100010002105000821050008210500080000000056
:1000200000000000000000000000000021050008A2
:100030002105000800000000210500082105000836
:1000400021050008210500082105000821050008F8
:1000500021050008210500082105000821050008E8
:1000600021050008210500082105000821050008D8
:1000700021050008210500082105000821050008C8
:1000800021050008210500082105000821050008B8
:1000900021050008210500082105000821050008A8
:1000A0002105000821050008210500082105000898
:1000B0002105000821050008210500082105000888
:1000C0002105000821050008210500082105000878
:1000D00021050008210500087D0900089108000895
:1000E0002105000821050008210500082105000858
:1000F0002105000821050008210500082105000848
:100100002105000821050008210500082105000837
:100110002105000821050008210500082105000827
:100120002105000821050008210500082105000817
:100130002105000821050008210500082105000807
:1001400021050008210500082105000821050008F7
:1001500021050008210500082105000821050008E7
:1001600021050008210500082105000821050008D7
:1001700021050008210500082105000821050008C7
:10018000210500082105000880B58AB000AF78601D
:10019000396000237B6200233B620023FB61002364
:1001A000BB617B681B8A9BB27B627B6A23F44053F2
:1001B0007B623B68DB881A467B6A13437B627B6AFF
:1001C0009AB27B681A827B689B899BB27B627B6A4E
:1001D00023F4B05323F00C037B623B689A883B689E
:1001E0001B8913439AB23B685B8913439BB21A463F
:1001F0007B6A13437B627B6A9AB27B689A817B68D5
:100200009B8A9BB27B627B6A23F440737B623B6870
:100210009B891A467B6A13437B627B6A9AB27B682E
:100220009A8207F10803184600F05CFC7B68304AAC
:10023000934203D07B682F4A934202D17B693B6291
:1002400001E03B693B627B689B899BB21BB2002B40
:100250000CDA3A6A13469B0013449A001A443B682E
:100260001B685B00B2FBF3F3FB610BE03A6A1346D9
:100270009B0013449A001A443B681B689B00B2FB26
:10028000F3F3FB61FB691C4AA2FB03235B091B011F
:100290007B627B6A1B09642202FB03F3FA69D31AAF
:1002A000BB617B689B899BB21BB2002B0CDABB69DC
:1002B000DB003233104AA2FB03235B0903F0070380
:1002C0007A6A13437B620BE0BB691B0132330A4A33
:1002D000A2FB03235B0903F00F037A6A13437B62DB
:1002E0007B6A9AB27B681A8100BF2837BD4680BD01
:1002F00000100140001401401F85EB5180B483B011
:1003000000AF78600B46FB70FB78002B08D07B6851
:100310009B899BB243F400539AB27B689A8107E0B1
:100320007B689B899BB223F400539AB27B689A81C5
:1003300000BF0C37BD4680BC704700BF80B483B09F
:1003400000AF78600B467B807B88C3F308039AB2CA
:100350007B689A8000BF0C37BD4680BC704700BFE9
:1003600080B483B000AF78607B689B889BB2C3F396
:1003700008039BB218460C37BD4680BC704700BFCF
:1003800080B487B000AF78600B467B8013467B70EB
:1003900000233B610023FB600023BB6000237B61E3
:1003A0007B687B617B88DBB25B09DBB23B617B886E
:1003B00003F01F03FB600122FB6802FA03F3BB603A
:1003C0003B69012B03D17B690C337B6109E03B69FD
:1003D000022B03D17B6910337B6102E07B6914330C
:1003E0007B617B78002B06D07B697A691168BA68DB
:1003F0000A431A6006E07B697A691168BA68D243D9
:100400000A401A6000BF1C37BD4680BC704700BF61
:1004100080B487B000AF78600B467B800023FB6020
:1004200000237B610023BB600023FB747B88DBB26D
:100430005B09DBB2BB607B8803F01F037B61012299
:100440007B6902FA03F37B61BB68012B07D17B68F0
:100450009B899BB21A467B6913407B6111E0BB68A4
:10046000022B07D17B681B8A9BB21A467B6913401B
:100470007B6106E07B689B8A9BB21A467B691340CE
:100480007B617B881B0A9BB2FB600122FB6802FA3E
:1004900003F3FB607B681B889BB21A46FB68134022
:1004A000FB607B69002B05D0FB68002B02D0012389
:1004B000FB7401E00023FB74FB7C18461C37BD462F
:1004C00080BC704780B582B000AF104B7B60104B92
:1004D0003B6007E03B681A1D3A607A68111D79603D
:1004E00012681A603B680B4A9342F3D30A480B49DF
:1004F0004FF000028842B8BF40F8042BFADB00F04E
:10050000E7FA00BF0837BD4680BD00BFDA14000817
:1005100000000020100000201000002074010020C6
:1005200080B400AFFEE700BF80B483B000AF0346E5
:10053000FB71084997F907305B09FA7902F01F024D
:10054000012000FA02F241F8232000BF0C37BD461B
:1005500080BC704700E100E080B584B000AF7860F7
:1005600039600023FB600BE0FB687A6813441B785A
:100570009BB219460848FFF7E1FEFB680133FB60B8
:10058000FA683B689A42EFDB0D210348FFF7D6FE7D
:1005900000BF1037BD4680BD0044004090B593B009
:1005A00000AF4A4A07F1200307CA83E80700002387
:1005B000FB62474B07F110040FCB07C4237007F110
:1005C0001D0300221A809A70424A3B4692E80300BB
:1005D00083E8030007F1080300221A605A60002331
:1005E0007B640CE007F120027B6C13441B789BB208
:1005F00019463948FFF7A2FE7B6C01337B647B6CA4
:100600000A2BEFDD00233B640BE0344A3B6C1344C0
:100610001B789BB219463048FFF790FE3B6C0133C4
:100620003B643B6C0F2BF0DD0023FB630CE007F118
:100630001002FB6B13441B789BB219462648FFF748
:100640007DFEFB6B0133FB63FB6B0B2BEFDD0023AC
:10065000BB630BE0224ABB6B13441B789BB2194669
:100660001D48FFF76BFEBB6B0133BB63BB6B0F2BEE
:10067000F0DD00237B630BE03A467B6B13441B7871
:100680009BB219461448FFF759FE7B6B01337B631D
:100690007B6B062BF0DD00233B630BE0114A3B6BC9
:1006A00013441B789BB219460B48FFF747FE3B6B80
:1006B00001333B633B6B0F2BF0DD1A210648FFF73C
:1006C0003DFE00BF4C37BD4690BD00BF241400085E
:1006D000341400084414000800440040E0000020E6
:1006E000BC000020CC00002080B483B000AF786054
:1006F0007B682F2B04DD7B68392B01DC012300E0B4
:10070000002318460C37BD4680BC704780B588B0C2
:1007100000AF0121042000F08FFA01214FF4802066
:1007200000F0A8FA4FF44063BB6102233B7700233B
:10073000BB770123FB7702237B7707F11803194668
:100740001E4800F0B5FA07220A211C4800F03EFBC3
:1007500007220B21194800F039FB4FF41653BB60F8
:100760000023BB810023FB8100233B820023BB824B
:100770000C237B8207F1080319461148FFF704FD9B
:1007800001210F48FFF7BAFD012240F225510C4824
:10079000FFF7F6FD27233B7100237B710023BB711C
:1007A0000123FB713B1D184600F000FC2720FFF7DA
:1007B000BBFE00BF2037BD4680BD00BF0008024021
:1007C0000048004080B588B000AF0121012000F052
:1007D00033FA01214FF4003000F04CFA0C23BB61D6
:1007E00002233B770023BB770123FB7702237B7730
:1007F00007F118031946224800F05AFA072202218D
:100800001F4800F0E3FA072203211D4800F0DEFA3A
:100810004FF41653BB600023BB810023FB810023F0
:100820003B820023BB820C237B8207F1080319461D
:100830001448FFF7A9FC01211248FFF75FFD0122D0
:1008400040F225510F48FFF79BFD26233B71002303
:100850007B710023BB710123FB713B1D184600F027
:10086000A5FB2620FFF760FE09210748FFF774FE6D
:100870000D210648FFF770FE00BF2037BD4680BD42
:1008800000000240004400405414000860140008B6
:1008900080B500AF40F225512D48FFF7B9FD034662
:1008A000002B53D02A48FFF75BFD0346DAB2294BF1
:1008B0001A70284B1B78242B03D1274B00221A6077
:1008C00044E0244B1B780D2B37D1052223492448C3
:1008D00000F024FD0346002B38D1102200212148CE
:1008E00000F0C4FB102200211F4800F0BFFB1022C3
:1008F00000211E4800F0BAFB06221D49194800F0ED
:100900005DFD174B1B7C1846FFF7EEFE0346002BE0
:100910001CD00A221749144800F050FD104BDA7E13
:10092000114B9A720B221449104800F047FD0C4BF2
:1009300093F829200D4BDA7208E0074B1B685A1C0C
:1009400005490A60034A1178054AD15400BF80BDA9
:1009500000480040700100201400002070140008BE
:10096000F0000020CC000020E0000020BC000020AF
:10097000F6000020000100200D01002080B592B09B
:1009800000AF40F225514648FFF742FD0346002BD9
:1009900000F082804248FFF7E3FC0346DAB2414BA5
:1009A0001A70404B1B780D2B69D13F4B00221A80E7
:1009B0000B223E493E4800F0B1FC0346002B03D019
:1009C00014213C48FFF7C8FD15223B49384800F088
:1009D000A5FC0346002B5FD0384B00221A8015235C
:1009E000A7F8463019E0354BB3F900301946B7F98E
:1009F00046302F4AD25C324B5A54304BB3F9003058
:100A00009BB201339BB21AB22C4B1A80B7F9463015
:100A10009BB201339BB2A7F84630B7F94630244A5F
:100A2000D35C222BDFD13B1D264A07CA03C31A80A1
:100A30003B1D2349184600F067FB3B1D184600F09C
:100A4000FFFB03461A463B1D13441F491A460B463B
:100A50001B881380194BB3F9003003F10A023B1DC8
:100A600011461846FFF778FDFFF798FD134BB3F9D1
:100A700000300A3319461548FFF76EFD0CE00A4BAB
:100A8000B3F9002093B201339BB219B2064B19801F
:100A9000044B1978064B995400BF4837BD4680BDBA
:100AA000004400407101002010000020781400086C
:100AB0003C000020841400089C140008180000204A
:100AC0001C000020B4140008C0140008C41400085E
:100AD00080B500AF00F0C2F9FFF774FEFFF716FE15
:100AE000FEE700BF80B489B000AF78600023BB612F
:100AF00000237B610023FB6102233B610023FB6039
:100B00000223BB60484B9B6803F00C03BB61BB69CD
:100B1000042B07D0082B09D0002B3FD17B68434A18
:100B20001A603FE07B68424A1A603BE03E4B5B68DC
:100B300003F480039B0DFB603B4B5B6803F03F03BA
:100B4000BB60FB68002B0DD0394ABB68B2FBF3F2E7
:100B5000354B596847F6C0730B409B0903FB02F302
:100B6000FB610CE0314ABB68B2FBF3F22E4B5968D3
:100B700047F6C0730B409B0903FB02F3FB612A4B52
:100B80005B6803F440331B0C01335B003B61FA6983
:100B90003B69B2FBF3F27B681A6003E07B68234A8F
:100BA0001A6000BF204B9B6803F0F003BB61BB6978
:100BB0001B09BB611F4ABB6913441B78DBB27B6115
:100BC0007B681A687B69DA407B685A60164B9B68C1
:100BD00003F4E053BB61BB699B0ABB61154ABB6967
:100BE00013441B78DBB27B617B685A687B69DA400F
:100BF0007B689A600C4B9B6803F46043BB61BB69E4
:100C00005B0BBB610B4ABB6913441B78DBB27B6196
:100C10007B685A687B69DA407B68DA6000BF2437FA
:100C2000BD4680BC704700BF003802400024F4007D
:100C300000127A000000002080B483B000AF78601A
:100C40000B46FB70FB78002B06D00949084B1A6B4A
:100C50007B6813430B6306E00549054B1A6B7B6801
:100C6000DB4313400B6300BF0C37BD4680BC7047AD
:100C70000038024080B483B000AF78600B46FB7050
:100C8000FB78002B06D00949084B1A6C7B6813438C
:100C90000B6406E00549054B1A6C7B68DB43134087
:100CA0000B6400BF0C37BD4680BC70470038024063
:100CB00080B487B000AF7860396000237B61002387
:100CC0003B610023FB6000237B6176E001227B69AE
:100CD00002FA03F33B613B681A683B691340FB600F
:100CE000FA683B699A4265D17B681A687B695B0048
:100CF000032101FA03F3DB431A407B681A607B6827
:100D00001A683B681B7919467B695B0001FA03F39B
:100D10001A437B681A603B681B79012B03D03B6840
:100D20001B79022B2ED17B689A687B695B000321BB
:100D300001FA03F3DB431A407B689A607B689A6888
:100D40003B685B7919467B695B0001FA03F31A4340
:100D50007B689A607B685A687B699BB2194601235D
:100D60008B40DB431A407B685A607B685B683A685B
:100D7000927911467A6992B201FA02F292B21A435A
:100D80007B685A607B68DA687B699BB25B000321F1
:100D900001FA03F3DB431A407B68DA607B68DA68A8
:100DA0003B68DB7919467B695B0001FA03F31A4360
:100DB0007B68DA607B6901337B617B690F2B85D9A6
:100DC00000BF1C37BD4680BC704700BF80B485B0F3
:100DD00000AF78600B467B8013467B700023FB607E
:100DE0000023BB607A787B8803F007039B0002FA3C
:100DF00003F3FB607B88DB089BB218467B88DB082B
:100E00009BB21A467B68083253F822207B8803F095
:100E100007039B000F2101FA03F3DB4302EA0301FE
:100E20007B6800F1080243F822107B88DB089BB244
:100E30001A467B68083253F82220FB681343BB60D4
:100E40007B88DB089BB21A467B680832B96843F896
:100E5000221000BF1437BD4680BC704780B500AF7C
:100E6000124A124B1B6843F0010313600F4B002220
:100E70009A600E4A0D4B1B6823F0847323F4803371
:100E800013600A4B0A4A5A60084A084B1B6823F44D
:100E900080231360054B0022DA6000F00DF8054B4B
:100EA0004FF000629A6000BF80BD00BF0038024072
:100EB0001030002400ED00E080B483B000AF0023C8
:100EC0007B6000233B60354A344B1B6843F480331E
:100ED0001360324B1B6803F400333B607B680133C3
:100EE0007B603B68002B03D17B68B3F5A06FF0D12A
:100EF0002A4B1B6803F40033002B02D001233B6014
:100F000001E000233B603B68012B42D1234A234B85
:100F10001B6C43F080531364214A214B1B6843F43C
:100F2000804313601D4A1D4B9B6893601B4A1B4BFB
:100F30009B6843F400439360184A184B9B6843F442
:100F4000A0539360154B174A5A60144A134B1B6801
:100F500043F08073136000BF104B1B6803F00073F5
:100F6000002BF9D0104B40F205621A600B4A0B4B74
:100F70009B6823F003039360084A084B9B6843F087
:100F80000203936000BF054B9B6803F00C03082B22
:100F9000F9D100BF0C37BD4680BC70470038024015
:100FA0000070004019544007003C024080B485B0F6
:100FB00000AF78600023FB730023BB730F237B73A8
:100FC0007B68DB78002B38D0264BDB68DB4303F4EF
:100FD000E0631B0AFB73FB7BC3F10403BB737A7BE7
:100FE000FB7B42FA03F37B737B685B781A46BB7B1F
:100FF00002FA03F3FB737B689A787B7B1340DAB2C7
:10100000FB7B1343FB73FB7B1B01FB73164A7B6863
:101010001B781344FA7B83F80023134A7B681B7800
:101020005B09DBB218467B681B7803F01F030121C4
:1010300001FA03F342F820300FE00B497B681B787C
:101040005B09DBB218467B681B7803F01F030122A3
:101050009A4000F1200341F8232000BF1437BD4619
:1010600080BC704700ED00E000E100E070B4840750
:1010700046D0541E002A41D0CDB2034602E0621E83
:10108000E4B3144603F8015B9A07F8D1032C2ED978
:10109000CDB245EA05250F2C45EA054519D903F1DE
:1010A00010022646103E0F2E42F8105C42F80C5CEF
:1010B00042F8085C42F8045C02F11002F2D8A4F194
:1010C000100222F00F0204F00F041032032C13441C
:1010D0000DD91E462246043A032A46F8045BFAD884
:1010E000221F22F003020432134404F003042CB143
:1010F000C9B21C4403F8011BA342FBD170BC70476A
:1011000014460346C2E700BF830710B5044610D15A
:101110000268A2F1013323EA020313F0803F08D1F1
:1011200050F8042FA2F1013323EA020313F0803FA9
:10113000F6D003781BB110F8013F002BFBD100F073
:1011400003F8204610BD00BF80EA0102844612F079
:10115000030F4FD111F0030F32D14DF8044D11F0B0
:10116000040F51F8043B0BD0A3F101329A4312F063
:10117000803F04BF4CF8043B51F8043B16D100BF3C
:1011800051F8044BA3F101329A4312F0803FA4F1CD
:1011900001320BD14CF8043BA24312F0803F04BF54
:1011A00051F8043B4CF8044BEAD023460CF8013BC1
:1011B00013F0FF0F4FEA3323F8D15DF8044B70476B
:1011C00011F0010F06D011F8012B0CF8012B002AA9
:1011D00008BF704711F0020FBFD031F8022B12F098
:1011E000FF0F16BF2CF8022B8CF8002012F47F4F53
:1011F000B3D1704711F8012B0CF8012B002AF9D15B
:10120000704700BF00000000000000000000000068
:1012100000000000000000000000000000000000CE
:1012200000000000000000000000000000000000BE
:1012300000000000000000000000000000000000AE
:1012400090F800F06DE9024520F007016FF0000C06
:1012500010F0070491F820F040F049804FF00004AE
:101260006FF00700D1E9002391F840F000F1080089
:1012700082FA4CF2A4FA8CF283FA4CF3A2FA8CF3C1
:101280004BBBD1E9022382FA4CF200F10800A4FA28
:101290008CF283FA4CF3A2FA8CF3E3B9D1E904237C
:1012A00082FA4CF200F10800A4FA8CF283FA4CF3B3
:1012B000A2FA8CF37BB9D1E9062301F1200182FA6D
:1012C0004CF200F10800A4FA8CF283FA4CF3A2FA73
:1012D0008CF3002BC6D0002A04BF04301A4612BA81
:1012E000B2FA82F2FDE8024500EBD2007047D1E984
:1012F000002304F00305C4F100004FEAC50514F013
:10130000040F91F840F00CFA05F562EA05021CBFE3
:1013100063EA050362464FF00004A9E7002A41D0C2
:1013200040EA010313F00303F0B425D1032A23D9C3
:1013300004680D68AC421FD1043A35D0A4F10135E0
:1013400025EA040414F0803F31D1071D0D1D0DE086
:1013500057F8043B0E68A3F10134B34224EA0304B6
:101360000AD1043A20D014F0803F23D1032A294621
:10137000384605F10405EBD803780C789C4202F15D
:10138000FF320CD182B114B916E06AB17BB110F80A
:10139000013F11F8014FA34202F1FF32F5D0181BB3
:1013A000F0BC7047104670471046F0BC70471846B6
:1013B000F0BC70470020F3E72046F1E740EA010364
:1013C0009B0770B42BD1032A29D90C46034621462A
:1013D00054F8046BA6F1013525EA060515F0803FA7
:1013E00006D1043A032A43F8046B2146EFD8A2B190
:1013F0000C781C70013A013301313CB16AB111F82B
:10140000014B03F8014B013A002CF7D12AB11A44E1
:10141000002103F8011B9A42FBD170BC70470346C0
:10142000E5E700BF0A6C617469747564653A200071
:10143000000000000A6C6F6E6769747564653A207D
:10144000000000000A74696D653A20000000000089
:101450000000000041542B434D47463D3100000041
:1014600041542B435343533D2247534D2200000028
:1014700047504747410000002B434D54493A202232
:10148000534D220041542B434D474C3D225245437E
:1014900020554E5245414422000000002B434D4749
:1014A000523A202252454320554E52454144222C67
:1014B0002200000041542B534D47533D22000000B1
:1014C0002200000041542B434D4744413D224445F6
:0A14D0004C20554E524541442200C5
:1014DA0000000000010203040102030406070809D0
:0400000508000000EF
:00000001FF
